S01600005765617468657253746174696F6E2E737265635C
S11300000C942A000C9447000C9447000C9447006D
S11300100C9447000C9447000C9447000C94470040
S11300200C9447000C9447000C94B7060C944700BA
S11300300C9447000C9447000C9447000C94470020
S11300400C9447000C9447000C9447000C94470010
S11300500C94470011241FBECFE5D8E0DEBFCDBF0E
S113006010E0A0E6B0E0E6EFFBE102C005900D92DF
S1130070AC37B107D9F721E0ACE7B0E001C01D927D
S1130080AE3BB207E1F70E94F7090C94F90D0C940A
S11300900000CF93DF93CDB7DEB766970FB6F89421
S11300A0DEBF0FBECDBF9E012F5F3F4F46E16AEA20
S11300B08EEE0E94A205898190E0982F88272A81DC
S11300C0822B90939F0080939E008B8190E0982FC9
S11300D088272C81822B9093B1008093B0008D816E
S11300E090E0982F88272E81822B9093B3008093E1
S11300F0B2008F8190E0982F88272885822B9093D7
S1130100AD008093AC00898590E0982F88272A85DC
S1130110822B9093A7008093A6008B8590E0982F64
S113012088272C85822B9093A1008093A0008D8535
S113013090E0982F88272E85822B9093BB00809384
S1130140BA008F8590E0982F88272889822B909376
S1130150B5008093B400898990E0982F88272A8974
S1130160822B9093AF008093AE008B8990E0982F00
S113017088272C89822B9093BD008093BC008D89A5
S113018090E0982F88272E89822B90939D0080934E
S11301909C0066960FB6F894DEBF0FBECDBFDF910C
S11301A0CF910895CF93DF9300D01F92CDB7DEB7E0
S11301B08EE28B839E012D5F3F4F41E064EF8EEE14
S11301C00E9476058FEF95E30197F1F700C00000D8
S11301D09E012F5F3F4F42E066EF8EEE0E94A20524
S11301E0898190E0A0E0B0E0BA2FA92F982F88274A
S11301F02A81822B8093B6009093B700A093B80015
S1130200B093B9000F900F900F90DF91CF910895A4
S1130210CF93DF9300D000D0CDB7DEB784E38C83D7
S11302209E012C5F3F4F41E064EF8EEE0E94760505
S11302308FEF95E30197F1F700C000009E012F5F57
S11302403F4F43E066EF8EEE0E94A20529818A812A
S113025090E0A0E0B0E0BA2FA92F982F8827A22B16
S1130260892F9A2FAB2FBB278093A2009093A300D2
S1130270A093A400B093A5000F900F900F900F903F
S1130280DF91CF9108958F929F92AF92BF92CF92B8
S1130290DF92EF92FF920E94D2008091A000909191
S11302A0A1004091B6005091B7006091B8007091E0
S11302B0B9009A01AB01281B390B41095109A091DE
S11302C0A600B091A7000E94870D6B017C010B2E44
S11302D0BFE0F594E794D794C794BA95D1F7B02DBD
S11302E08090BC009090BD00092C000CAA08BB08AB
S11302F0C501B401052E5BE0660F771F881F991FA7
S11303005A95D1F7502D20919C0030919D004901C0
S1130310330FAA08BB08A50194012C0D3D1D4E1DE9
S11303205F1D0E94680DD701C601820F931FA41F91
S1130330B51F8093A8009093A900A093AA00B0933E
S1130340AB000896A11DB11DBC01CD01689413F842
S113035095958795779567951694D1F7FF90EF90CB
S1130360DF90CF90BF90AF909F908F9008954F9261
S11303705F926F927F928F929F92AF92BF92CF9231
S1130380DF92EF92FF92CF93DF9300D000D0CDB7EE
S1130390DEB70E9408018091A8009091A900A09165
S11303A0AA00B091AB009C01AD01205A3F40410925
S11303B0510929833A834B835C83CA01B9010E94A2
S11303C0360D2B013C01A091B200B091B3000E9404
S11303D0920D6B017C010B2EBDE0F594E794D7944C
S11303E0C794BA95D1F7B02DA091BA00B091BB00D3
S11303F0A3019201012E1CE0559547953795279549
S11304001A95D1F7102D0E94920DBB2797FDB09538
S1130410AB2F8C0D9D1DAE1DBF1D0296A11DB11DE0
S1130420B595A79597958795B595A795979587952C
S11304309C01AD0130584F4F5F4FA091AC00B0917B
S1130440AD000E94870D6B017C010B2EBFE0F6947A
S1130450E794D794C794BA95D1F7B02D80919E00B4
S113046090919F00092E000CAA0BBB0B4C015D015F
S1130470880C991CAA1CBB1C880C991CAA1CBB1CAC
S1130480A091B400B091B500A30192010E94920D15
S11304902B013C01032E37E17594679457944794DC
S11304A03A95D1F7302DA091B000B091B1002981D7
S11304B03A814B815C810E94920DAB01BC01032EF9
S11304C03BE075956795579547953A95D1F7302D4B
S11304D0D301C201840F951FA61FB71F880D991D54
S11304E0AA1DBB1D0296A11DB11DB595A795979593
S11304F08795B595A795979587954091A2005091BA
S1130500A3006091A4007091A5009A01AB01281B7F
S1130510390B4A0B5B0BA0E5B3EC0E94870D9923C2
S11305205CF0660F771F881F991FA70196010E9430
S1130530460D69017A010AC0A70196010E94460D81
S113054069017A01CC0CDD1CEE1CFF1C9927F7FC19
S11305509A958F2D7E2D6D2D9B01AC010E94360D39
S11305609B01AC01AEEDBBE00E94870D4C01BB24A6
S113057097FCB094AB2CA3E4B3EEA70196010E94C0
S1130580950DBB2797FDB095AB2F880D991DAA1D1E
S1130590BB1D8153914FAF4FBF4F689413F8B5956E
S11305A0A795979587951694D1F7BC01CD016C0D4D
S11305B07D1D8E1D9F1D0F900F900F900F90DF914A
S11305C0CF91FF90EF90DF90CF90BF90AF909F902E
S11305D08F907F906F905F904F9008956115710593
S11305E0B1F0FC01680F791F80E058E048E12191E7
S11305F0952F322F382730FF0CC0842786958068CA
S113060026959150B1F7E617F70789F7089580E02A
S113061008958695F5CF6F927F928F929F92BF92A5
S1130620CF92DF92EF92FF920F931F93CF93DF93BA
S113063000D000D01F92CDB7DEB74C013B01FE01C4
S1130640319685E0DF011D928A95E9F78E9A969A94
S1130650BFEFEFE5F3E0B150E040F040E1F700C058
S11306600000969886E695E00197F1F70000969AC7
S11306708E9893E99A95F1F700C086999BC0ADEDE9
S1130680B0E01197F1F7869B97C0EDEDF0E031975C
S1130690F1F78E010F5F1F4F6E01F6E0CF0ED11CF4
S11306A00F2EF7E0FF2EF02DB12C60E0E1E0F0E03A
S11306B079EC90E028C02150310919F47FC0272F2C
S11306C0392F869BF8CF2EE62A95F1F700C0869B3A
S11306D008C09F01042E02C0220F331F0A94E2F7C0
S11306E0822B272F392F04C02150310909F468C007
S11306F08699FACF4150510910F7D8018D938D0195
S1130700AC15BD0521F04F2D5B2D862FD8CF8E9AC9
S1130710969ABFEFEFE5F3E0B150E040F040E1F727
S113072000C000002981EA809B816C818E2D820F9C
S1130730890F860F3D81831345C06301F12CF22A92
S113074070E0792B7723A4F47F7780E090E00E9417
S1130750ED0B20E030E040E251E40E94090BDC01A3
S1130760CB01B058F40180839183A283B38310C07A
S113077080E090E00E94ED0B20E030E040E251E4A4
S11307800E94090BD4016D937D938D939C931397D1
S1130790B70180E090E00E94ED0B20E030E040E201
S11307A051E40E94090BF601608371838283938371
S11307B080E009C08FEF07C08FEF05C08FEF03C043
S11307C08FEF01C08FEF0F900F900F900F900F904D
S11307D0DF91CF911F910F91FF90EF90DF90CF9019
S11307E0BF909F908F907F906F9008950E940B030D
S11307F008950F931F93CF93DF93CDB7DEB7609720
S11308000FB6F894DEBF0FBECDBF90E1E0E6F0E096
S1130810DE01119601900D929A95E1F7DB01EC91BE
S113082011969C911197F0E0F92B803179F4EE7FC9
S1130830EE0FFF1FEE0FFF1FEE0FFF1F16969C918A
S1130840ACE0B0E0A91BB109EA0FFB1FFF233CF4A5
S113085091E0DA019C93F195E195F10902C0DA0186
S11308601C92883281F4DB0114968C91982F907637
S1130870903649F086FF02C0EE7F05C085FF02C0B6
S1130880EC7F01C0E87FCF01929582958F70892714
S11308909F708927D9018C93EF70FF27EC0FFD1F00
S11308A08181F801808380E060960FB6F894DEBF02
S11308B00FBECDBFDF91CF911F910F9108950F937C
S11308C01F93CF93DF93EC018B01B80188810E94C1
S11308D08B0A888381508D3F30F4F80190819832DF
S11308E011F0903191F7DF91CF911F910F910895FD
S11308F0DF92EF92FF920F931F93CF93DF93CDB7C5
S1130900DEB729970FB6F894DEBF0FBECDBF8FEFC9
S113091089870F2EFEEBEF2EF0E0FF2EF02DD12C69
S11309208E01075F1F4FBE016F5F7F4FC8010E949A
S11309305F0499859E5F923090F0FE013196D70155
S113094091919D93E017F107D9F7D3948985882372
S113095031F088E0E80EF11C84E0D812E4CF8D2D4C
S113096029960FB6F894DEBF0FBECDBFDF91CF91AD
S11309701F910F91FF90EF90DF9008950F931F93B5
S1130980CF93C82F8B010E94480A0E94420A8823F1
S113099051F0B80184E40E94E50AC13031F00E94AC
S11309A0450A80E003C082E001C080E0CF911F913E
S11309B00F9108957F928F929F92AF92BF92CF92A0
S11309C0DF92EF92FF920F931F93CF93DF93CDB7F4
S11309D0DEB729970FB6F894DEBF0FBECDBF782ED1
S11309E06B015A01490160E070E08EEB0E94E50A58
S11309F08E010F5F1F4F7E018AE0E80EF11C0E94FA
S1130A00870AF80181938F01EE15FF05C1F769E0AC
S1130A1070E0CE0101960E94EE02F82E81110AC008
S1130A2084019501A601BE016F5F7F4F872D0E944F
S1130A30F90304C00F2EF3E0FF2EF02D8F2D29961D
S1130A400FB6F894DEBF0FBECDBFDF91CF911F91DB
S1130A500F91FF90EF90DF90CF90BF90AF909F9059
S1130A608F907F90089511B848EE53E0282F249F6B
S1130A70C001259F900D11249C01990F440B550B27
S1130A8060E070EC88EA90E00E94680DBA01A90168
S1130A904051510961097109DB01CA011AF4019637
S1130AA0A11DB11DB595A7959795879580B9089512
S1130AB084EA86BF06B607FEFDCF089584E986BFA3
S1130AC006B604FEFDCF089583B984E886BF06B652
S1130AD007FEFDCF089520E4829FC001112484689D
S1130AE086BF06B607FEFDCF83B10895EF92FF924D
S1130AF00F931F93CF93DF93182FD62FC42F790111
S1130B000E945805812F0E9464058D2F0E94640560
S1130B108FEF8C0FCC2369F0E701082F10E00F5FF3
S1130B201F4F0E0D1F1D89910E946405C017D10728
S1130B30D1F70E945E05DF91CF911F910F91FF9035
S1130B40EF900895EF92FF920F931F93CF93DF934B
S1130B50D82F162FC42FE22EF32E0E9458058D2F66
S1130B600E946405812F0E9464050E94580581E05B
S1130B708D0F0E946405DFEFDC0FCC2391F00E2D66
S1130B801F2DFF24F394E12CCF2DD11101C0CE2DC4
S1130B908C2F0E946B05F80181938F01D150C111F4
S1130BA0F3CF0E945E05DF91CF911F910F91FF90CB
S1130BB0EF900895C19A80FF02C0C49A01C0C498FE
S1130BC081FF02C0C59A01C0C59882FF02C0C69ABF
S1130BD001C0C69883FF02C0C79A01C0C79884E0C9
S1130BE08A95F1F7C19884E08A95F1F70895CF9337
S1130BF0C82F82958F700E94DA058C2F0E94DA0527
S1130C00CF910895C0980E94F70584E191E001977F
S1130C10F1F700000895C09A0E94F70584E191E07D
S1130C200197F1F700000895BC9ABD9ABE9ABF9A45
S1130C30B99AB89AA79A8FEF95E30197F1F700C094
S1130C40000083E00E94DA058CEC9AE00197F1F74A
S1130C5000C0000083E00E94DA058CEC9AE0019762
S1130C60F1F700C0000083E00E94DA058CEC9AE002
S1130C700197F1F700C0000082E00E94DA058CECD5
S1130C809AE00197F1F700C0000088E20E94020692
S1130C908CEC9AE00197F1F700C0000081E00E941B
S1130CA002068CEC9AE00197F1F700C0000086E0A0
S1130CB00E9402068CEC9AE00197F1F700C0000054
S1130CC08CE00E9402068CEC9AE00197F1F700C0D8
S1130CD00000089581E00E940206089582E00E94C7
S1130CE0020689E995E10197F1F700C008956130A2
S1130CF011F090E801C090EC892B0E94020608953F
S1130D000F931F93CF93DF93FC018081882369F0B5
S1130D10EF0121968F0107511C4F0E940B06899108
S1130D20882319F0C017D107C1F7DF91CF911F9124
S1130D300F910895CF93DF93CDB7DEB72A970FB6FF
S1130D40F894DEBF0FBECDBF4AE0BE016F5F7F4F98
S1130D500E94C40DCE0101960E9480062A960FB609
S1130D60F894DEBF0FBECDBFDF91CF9108951F92DF
S1130D700F920FB60F9211248F939F938091DE00F0
S1130D809091DF0001969093DF008093DE0084361B
S1130D90910590F081E080936E018091E4008F5F73
S1130DA08093E4008091E4008C3310F01092E4000E
S1130DB01092DF001092DE009F918F910F900FBE72
S1130DC00F901F90189586B1876886B980E487B91B
S1130DD0A098A198A298A398A498A598A698A79833
S1130DE00895369A3699FECF08951F93CF93DF93D3
S1130DF0EC01188219821A821B821AE00E94F10601
S1130E0024B135B188819981AA81BB81BC01CD010E
S1130E10620F731F811D911D688379838A839B836D
S1130E20115061F72AE030E040E050E00E94460DA6
S1130E30288339834A835B83DF91CF911F9108957F
S1130E4080E487B98FEF9BE60197F1F700C00000BB
S1130E5080E791E00E94F50681E487B98FEF9BE675
S1130E600197F1F700C0000089EB91E00E94F506BC
S1130E7008950E94580586E40E94640581E00E945A
S1130E80640587E00E9464050E945E050895EF9260
S1130E90FF920F931F93CF93DF93D82F162FC42F56
S1130EA0E22EF32E0E9458058D2F0E946405812F97
S1130EB00E9464050E94580581E08D0F0E9464051C
S1130EC0DFEFDC0FCC2391F00E2D1F2DFF24F394C4
S1130ED0E12CCF2DD11101C0CE2D8C2F0E946B059A
S1130EE0F80181938F01D150C111F3CF0E945E05A7
S1130EF0DF91CF911F910F91FF90EF900895809112
S1130F0074014AE065E771E090E00E94C40D65E772
S1130F1071E088E691E00E94B20DE8E6F1E001900C
S1130F200020E9F731978CE290E0918380838091EF
S1130F30BD014AE065E771E090E00E94C40D65E7F9
S1130F4071E088E691E00E94B20D08952DEB31E046
S1130F5044E751E06FE671E08091E7000E94DA0413
S1130F60811114C080916F01882339F08DE290E0E3
S1130F70909369018093680106C080E290E09093A9
S1130F806901809368010E947F07089560E081E011
S1130F900E94770682E790E00E94800608950E94EE
S1130FA078048093E70060E070E081E00E94BE0472
S1130FB02FEF8FE499E1215080409040E1F700C089
S1130FC000000E94A60708950E946A060E946E0609
S1130FD088E691E00E94800688E790E00E948006FF
S1130FE020E030E040E251E460918C0070918D008B
S1130FF080918E0090918F000E94C90C0E94B70BC3
S1131000CB010E949A0688E790E00E94800620E0C7
S113101030E040E251E46091900070919100809141
S11310209200909193000E94C90C0E94B70BCB01CF
S11310300E949A0688E790E00E94800661E080E0C2
S11310400E94770680917001909171010E949A0626
S113105088E790E00E9480068091B9019091BA01DE
S11310600E949A0688E790E00E94800680917C00A6
S113107090917D000E949A0688E790E00E94800685
S11310800895AF92BF92CF92DF92EF92FF920F93A7
S11310901F939091E4008BEA989F812D11248695EB
S11310A0282F220F820F981306C06CE870E080E9A5
S11310B090E00E94F6039091E4008BEA989F812DC2
S11310C011248695282F220F820F981B913009F046
S11310D04CC060E070E081E00E94BE0425EE30E088
S11310E042E060E286E40E944707E5EEF0E03081EA
S11310F020E0932F990F990BA180492F592F692F25
S1131100792F892FB12CC12CD12CE12CF12C00E0AA
S113111010E00E949A0D2093840030938500409340
S113112086005093870060938800709389008093B1
S11311308A0090938B000E942A0C2AE939E949E934
S11311405FE30E94090B0E94800B20937C00309384
S11311507D0040937E0050937F00609380007093E5
S1131160810080938200909383009091E4008BEA45
S1131170989F812D11248695282F220F820F981B6A
S1131180923011F40E94A60710926E011F910F91E4
S1131190FF90EF90DF90CF90BF90AF90089583B70A
S11311A0886083BF83B7856083BF8CE68CBF89B7B3
S11311B0826089BF0895EF92FF920F931F93CF939C
S11311C0DF9368E671E088EE90E00E94BD0DC8EE02
S11311D0D0E0FE0101900020E9F7319700E210E031
S11311E01183008320E030E040E251E460919000FC
S11311F07091910080919200909193000E94C90C8B
S11312000E94B70BDC01CB014AE065E771E00E9464
S1131210C40D65E771E0CE010E94B20DFE0101909C
S11312200020E9F731971183008320E030E040E2A9
S113123051E460918C0070918D0080918E009091AA
S11312408F000E94C90C0E94B70BDC01CB014AE05D
S113125065E771E00E94C40D65E771E0CE010E946C
S1131260B20DFE0101900020E9F73197118300834C
S11312704AE065E771E080917001909171010E94EC
S1131280C40D65E771E0CE010E94B20DFE0101902C
S11312900020E9F73197118300834AE065E771E0A4
S11312A08091B9019091BA010E94C40D65E771E083
S11312B0CE010E94B20DFE0101900020E9F73197A2
S11312C0118300834AE065E771E080917C0090918E
S11312D07D000E94C40D65E771E0CE010E94B20D4D
S11312E0FE0101900020E9F73197118300830F2E4E
S11312F0F5EEEF2EF0E0FF2EF02DF70180814AE0AD
S113130065E771E090E00E94C40D65E771E0CE01ED
S11313100E94B20DFE0101900020E9F731978CE2A2
S113132090E091838083F70181814AE065E771E071
S113133090E00E94C40D65E771E0CE010E94B20DF9
S1131340FE0101900020E9F73197118300834AE000
S113135065E771E08091E0009091E1000E94C40D86
S113136065E771E0CE010E94B20DFE0101900020FC
S1131370E9F73197118300834AE065E771E08091D2
S1131380B5019091B6010E94C40D65E771E0CE01EC
S11313900E94B20D09900020E9F721971983088370
S11313A06AE770E088EE90E00E94B20DDF91CF9181
S11313B01F910F91FF90EF90089510BC87E489B9B5
S11313C0539A8EE880BD08955D9BFECF8CB9089535
S11313D0CF93DF93EC018881882331F021960E941A
S11313E0E40989918111FBCFDF91CF910895BB9AD4
S11313F0C3980E94E3060E94CF070E9414060E942D
S1131400CF080E94DD0984E60E9433050E94390753
S11314102FEF8FEB91E2215080409040E1F700C024
S113142000000E94490078942FEF8FE593E021504B
S113143080409040E1F700C0000080916E01882355
S1131440E1F30E9443016093E0007093E100809314
S1131450E2009093E3000E94B7016093B50170939A
S1131460B6018093B7019093B8010E9441080E948D
S1131470E4070E9420070E94DB0888EE90E00E94A7
S1131480E809DBCF80B388700895939A8B9A089506
S113149093988B9A8FE295E00197F1F79FB7F894B0
S11314A08B98E3EFEA95F1F7000080B39FBFE8E77C
S11314B0F4E03197F1F700C0839B02C0887008956F
S11314C081E008959FB7F8948B9A24E02A95F1F768
S11314D081118B9827E32A95F1F70000839B80E024
S11314E026EA2A95F1F78B989FBF0895CF93DF934F
S11314F0C82FD8E08C2F81700E94620AC695811192
S1131500C068D150B9F78C2FDF91CF9108958FEF38
S11315100E94760A0895DF92EF92FF920F931F9331
S1131520CF93DF93D82E8B010E94480A81112BC0E0
S113153080EF0E94760AE12CC0E40F2EF8EFFF2E14
S1131540F02DFC0E81E00E94620AD82F81E00E94F7
S1131550620A882319F0DD23D1F017C0D11124C009
S1131560CD15E8F0F801808180FF11C0DC121AC0AB
S11315700EC0C150CF11E6CF0F5F1F4FCF2DF1101A
S1131580DCCF8E2D1AC08FEF18C08EEF16C080E00E
S11315900E94620AF801908196959083EACFEC2E1E
S11315A0D1E002C0EC2ED1E08D2F0E94620AF80136
S11315B09081969590689083DCCFDF91CF911F91B5
S11315C00F91FF90EF90DF900895FF920F931F9378
S11315D0CF93DF93F82EEB010E94480A209769F01D
S11315E085E50E94760A8E01085F1F4F89910E944B
S11315F0760AC017D107D1F703C08CEC0E94760A93
S11316008F2D0E94760ADF91CF911F910F91FF9049
S113161008950E941D0B0C948F0C0E94880C58F0A6
S11316200E94810C40F029F45F3F29F00C94680C6F
S113163051110C94C30C0C946E0C0E94A00C68F312
S11316409923B1F3552391F3951B550BBB27AA2777
S113165062177307840738F09F5F5F4F220F331FB1
S1131660441FAA1FA9F335D00E2E3AF0E0E832D079
S113167091505040E695001CCAF72BD0FE2F29D07C
S1131680660F771F881FBB1F261737074807AB074E
S1131690B0E809F0BB0B802DBF01FF2793585F4FC3
S11316A03AF09E3F510578F00C94680C0C94C30CEE
S11316B05F3FE4F3983ED4F3869577956795B795A5
S11316C0F7959F5FC9F7880F911D9695879597F9B0
S11316D00895E1E0660F771F881FBB1F6217730729
S11316E08407BA0720F0621B730B840BBA0BEE1F3E
S11316F088F7E0950895BEE304D008F490E80895CF
S1131700BFE322273327A9010E94A80C60F19F5749
S113171048F1B91740F1BFE3B91B9927B8503AF41F
S1131720660F771F881F991FB395D2F316C0B85060
S11317304AF0232F342F452F562F672F782F8827D1
S1131740B850BAF7B85F49F086957795679557957D
S1131750479537952795BA95B9F716F40E94710CF9
S113176088940895889460E070E0CB0108950E9405
S1131770BE0B6894B1110C94C30C08950E94A80C7C
S113178088F09F5798F0B92F9927B751B0F0E1F03E
S1131790660F771F881F991F1AF0BA95C9F714C0EE
S11317A0B13091F00E94C20CB1E008950C94C20CC7
S11317B0672F782F8827B85F39F0B93FCCF3869527
S11317C077956795B395D9F73EF490958095709584
S11317D061957F4F8F4F9F4F0895E89409C097FB01
S11317E03EF490958095709561957F4F8F4F9F4FF4
S11317F09923A9F0F92F96E9BB279395F695879538
S113180077956795B795F111F8CFFAF4BB0F11F4FA
S113181060FF1BC06F5F7F4F8F4F9F4F16C08823A1
S113182011F096E911C0772321F09EE8872F762FD7
S113183005C0662371F096E8862F70E060E02AF018
S11318409A95660F771F881FDAF7880F9695879504
S113185097F90895E894F92F96EBFF2381F0121677
S113186013061406440B9395F6958795779567951B
S113187057954040FF23B9F71BC099270895882343
S113188051F49850D2F7872B762F652F542F432F7E
S1131890322F20E0B1F3121613061406440B8823EA
S11318A03AF09A95440F551F661F771F881FCAF791
S11318B055234AF4440F551F11F460FF04C06F5FB1
S11318C07F4F8F4F9F4F880F9695879597F908956F
S11318D097F99F6780E870E060E008959FEF80ECDF
S11318E008959095809570956095509540953095A4
S11318F021953F4F4F4F5F4F6F4F7F4F8F4F9F4FFC
S1131900089500240A941616170618060906089561
S113191000240A9412161306140605060895092EC7
S11319200394000C11F4882352F0BB0F40F4BF2B36
S113193011F460FF04C06F5F7F4F8F4F9F4F089576
S113194057FD9058440F551F59F05F3F71F047956C
S1131950880F97FB991F61F09F3F79F08795089551
S1131960121613061406551FF2CF4695F1DF08C070
S1131970161617061806991FF1CF8695710561058D
S113198008940895E894BB2766277727CB0197F935
S113199008950E94DC0C0C948F0C0E94810C38F08A
S11319A00E94880C20F0952311F00C94680C0C9480
S11319B06E0C11240C94C30C0E94A00C70F3959F20
S11319C0C1F3950F50E0551F629FF001729FBB2732
S11319D0F00DB11D639FAA27F00DB11DAA1F649FCE
S11319E06627B00DA11D661F829F2227B00DA11D81
S11319F0621F739FB00DA11D621F839FA00D611D07
S1131A00221F749F3327A00D611D231F849F600D27
S1131A10211D822F762F6A2F11249F5750409AF050
S1131A20F1F088234AF0EE0FFF1FBB1F661F771FDC
S1131A30881F91505040A9F79E3F510580F00C94A7
S1131A40680C0C94C30C5F3FE4F3983ED4F3869582
S1131A5077956795B795F795E7959F5FC1F7FE2B47
S1131A60880F911D9695879597F90895DB018F93BB
S1131A709F930E94870DBF91AF91A29F800D911DEE
S1131A80A39F900DB29F900D11240895A1E21A2EE8
S1131A90AA1BBB1BFD010DC0AA1FBB1FEE1FFF1F0E
S1131AA0A217B307E407F50720F0A21BB30BE40B5E
S1131AB0F50B661F771F881F991F1A9469F76095A5
S1131AC07095809590959B01AC01BD01CF0108955F
S1131AD0052E97FB1EF400940E947F0D57FD07D03E
S1131AE00E94460D07FC03D04EF40C947F0D5095D4
S1131AF04095309521953F4F4F4F5F4F08959095F6
S1131B008095709561957F4F8F4F9F4F08950E94E8
S1131B10A30DA59F900DB49F900DA49F800D911DC2
S1131B2011240895B7FF0C94870D0E94870D821B22
S1131B30930B08952A0D3B1D4C1D5D1D6E1D7F1DCD
S1131B40801F911F0895A29FB001B39FC001A39F5E
S1131B50700D811D1124911DB29F700D811D1124E2
S1131B60911D0895FB01DC010D900020E9F7119708
S1131B7001900D920020E1F70895FB01DC01019032
S1131B800D920020E1F70895BB274A3031F49923E0
S1131B9022F4BDE2909581959F4F0C94D00DBB2704
S1131BA0FB015527AA27880F991FAA1FA41710F015
S1131BB0A41B83955051B9F7A05DAA3308F0A95D21
S1131BC0A193009779F7B111B1931192CB010C94C1
S1131BD0E90DDC01FC01672F71917723E1F732975E
S1131BE004C07C916D9370836291AE17BF07C8F3F4
S1091BF00895F894FFCFF4
S1131BF60001010202030404050606070708090991
S10F1C062B006572726F720020000D004C
S9030000FC
