S01600005765617468657253746174696F6E2E737265635C
S11300000C9432000C944F000C944F000C944F004D
S11300100C944F000C944F000C944F000C944F0020
S11300200C944F000C944F000C9417070C944F0041
S11300300C944F000C944F000C944F000C944F0000
S11300400C944F000C944F000C944F000C944F00F0
S11300500C944F00576561746865725374617469D8
S11300606F6E000011241FBECFE5D8E0DEBFCDBF08
S113007010E0A0E6B0E0E0EDFCE102C005900D92D6
S1130080AC37B107D9F721E0ACE7B0E001C01D926D
S1130090AE3BB207E1F70E947B0A0C94660E0C9407
S11300A000000E94A60586E40E94B20581E00E9439
S11300B0B20587E00E94B2050E94AC050895EF9254
S11300C0FF920F931F93CF93DF93D82F162FC42F34
S11300D0E22EF32E0E94A6058D2F0E94B205812FD9
S11300E00E94B2050E94A60581E08D0F0E94B20510
S11300F0DFEFDC0FCC2391F00E2D1F2DFF24F394A2
S1130100E12CCF2DD11101C0CE2D8C2F0E94B90529
S1130110F80181938F01D150C111F3CF0E94AC0536
S1130120DF91CF911F910F91FF90EF900895CF939E
S1130130DF93CDB7DEB766970FB6F894DEBF0FBE78
S1130140CDBF9E012F5F3F4F46E16AEA8EEE0E94CB
S1130150F005898190E0982F88272A81822B90933B
S11301609F0080939E008B8190E0982F88272C819C
S1130170822B9093B1008093B0008D8190E0982FF2
S113018088272E81822B9093B3008093B2008F81B5
S113019090E0982F88272885822B9093AD00809338
S11301A0AC00898590E0982F88272A85822B90932C
S11301B0A7008093A6008B8590E0982F88272C8534
S11301C0822B9093A1008093A0008D8590E0982FBE
S11301D088272E85822B9093BB008093BA008F854D
S11301E090E0982F88272889822B9093B5008093DC
S11301F0B400898990E0982F88272A89822B9093CC
S1130200AF008093AE008B8990E0982F88272C89CB
S1130210822B9093BD008093BC008D8990E0982F31
S113022088272E89822B90939D0080939C0066964C
S11302300FB6F894DEBF0FBECDBFDF91CF91089506
S1130240CF93DF9300D01F92CDB7DEB78EE28B83BE
S11302509E012D5F3F4F41E064EF8EEE0E94C40586
S11302608FEF95E30197F1F700C000009E012F5F27
S11302703F4F42E066EF8EEE0E94F005898190E0E8
S1130280A0E0B0E0BA2FA92F982F88272A81822BCB
S11302908093B6009093B700A093B800B093B900D0
S11302A00F900F900F90DF91CF910895CF93DF932C
S11302B000D000D0CDB7DEB784E38C839E012C5FE1
S11302C03F4F41E064EF8EEE0E94C4058FEF95E34B
S11302D00197F1F700C000009E012F5F3F4F43E0FC
S11302E066EF8EEE0E94F00529818A8190E0A0E0FD
S11302F0B0E0BA2FA92F982F8827A22B892F9A2FE5
S1130300AB2FBB278093A2009093A300A093A400DB
S1130310B093A5000F900F900F900F90DF91CF91A5
S113032008958F929F92AF92BF92CF92DF92EF92F5
S1130330FF920E9420018091A0009091A100409121
S1130340B6005091B7006091B8007091B9009A015D
S1130350AB01281B390B41095109A091A600B091AA
S1130360A7000E94F40D6B017C010B2EBFE0F594F5
S1130370E794D794C794BA95D1F7B02D8090BC0078
S11303809090BD00092C000CAA08BB08C501B4015B
S1130390052E5BE0660F771F881F991F5A95D1F7CA
S11303A0502D20919C0030919D004901330FAA08E3
S11303B0BB08A50194012C0D3D1D4E1D5F1D0E941F
S11303C0D50DD701C601820F931FA41FB51F8093BB
S11303D0A8009093A900A093AA00B093AB0008963C
S11303E0A11DB11DBC01CD01689413F895958795A5
S11303F0779567951694D1F7FF90EF90DF90CF90A3
S1130400BF90AF909F908F9008954F925F926F929C
S11304107F928F929F92AF92BF92CF92DF92EF9290
S1130420FF92CF93DF9300D000D0CDB7DEB70E9408
S113043056018091A8009091A900A091AA00B091C2
S1130440AB009C01AD01205A3F4041095109298369
S11304503A834B835C83CA01B9010E94A30D2B012B
S11304603C01A091B200B091B3000E94FF0D6B015A
S11304707C010B2EBDE0F594E794D794C794BA950C
S1130480D1F7B02DA091BA00B091BB00A3019201A5
S1130490012E1CE055954795379527951A95D1F768
S11304A0102D0E94FF0DBB2797FDB095AB2F8C0D2F
S11304B09D1DAE1DBF1D0296A11DB11DB595A7952D
S11304C097958795B595A795979587959C01AD01C7
S11304D030584F4F5F4FA091AC00B091AD000E94D7
S11304E0F40D6B017C010B2EBFE0F694E794D794D6
S11304F0C794BA95D1F7B02D80919E0090919F003A
S1130500092E000CAA0BBB0B4C015D01880C991C35
S1130510AA1CBB1C880C991CAA1CBB1CA091B4006F
S1130520B091B500A30192010E94FF0D2B013C0183
S1130530032E37E175946794579447943A95D1F70D
S1130540302DA091B000B091B10029813A814B8146
S11305505C810E94FF0DAB01BC01032E3BE075954D
S11305606795579547953A95D1F7302DD301C20138
S1130570840F951FA61FB71F880D991DAA1DBB1DAB
S11305800296A11DB11DB595A79597958795B5952B
S1130590A795979587954091A2005091A3006091EB
S11305A0A4007091A5009A01AB01281B390B4A0BDA
S11305B05B0BA0E5B3EC0E94F40D99235CF0660F8D
S11305C0771F881F991FA70196010E94B30D690127
S11305D07A010AC0A70196010E94B30D69017A014C
S11305E0CC0CDD1CEE1CFF1C9927F7FC9A958F2D73
S11305F07E2D6D2D9B01AC010E94A30D9B01AC01CE
S1130600AEEDBBE00E94F40D4C01BB2497FCB0940A
S1130610AB2CA3E4B3EEA70196010E94020EBB2704
S113062097FDB095AB2F880D991DAA1DBB1D815355
S1130630914FAF4FBF4F689413F8B595A795979511
S113064087951694D1F7BC01CD016C0D7D1D8E1DCF
S11306509F1D0F900F900F900F90DF91CF91FF90FF
S1130660EF90DF90CF90BF90AF909F908F907F904E
S11306706F905F904F90089561157105B1F0FC0182
S1130680680F791F80E058E048E12191952F322FBF
S1130690382730FF0CC084278695806826959150B2
S11306A0B1F7E617F70789F7089580E0089586956E
S11306B0F5CF6F927F928F929F92BF92CF92DF92EB
S11306C0EF92FF920F931F93CF93DF9300D000D04C
S11306D01F92CDB7DEB74C013B01FE01319685E098
S11306E0DF011D928A95E9F78E9A969ABFEFEFE59E
S11306F0F3E0B150E040F040E1F700C0000096980C
S113070086E695E00197F1F70000969A8E9893E9B2
S11307109A95F1F700C086999BC0ADEDB0E01197B2
S1130720F1F7869B97C0EDEDF0E03197F1F78E017C
S11307300F5F1F4F6E01F6E0CF0ED11C0F2EF7E0B6
S1130740FF2EF02DB12C60E0E1E0F0E079EC90E0D8
S113075028C02150310919F47FC0272F392F869BD7
S1130760F8CF2EE62A95F1F700C0869B08C09F01BA
S1130770042E02C0220F331F0A94E2F7822B272F84
S1130780392F04C02150310909F468C08699FACF81
S11307904150510910F7D8018D938D01AC15BD0559
S11307A021F04F2D5B2D862FD8CF8E9A969ABFEFCE
S11307B0EFE5F3E0B150E040F040E1F700C00000A5
S11307C02981EA809B816C818E2D820F890F860F8F
S11307D03D81831345C06301F12CF22A70E0792B2B
S11307E07723A4F47F7780E090E00E945A0C20E005
S11307F030E040E251E40E94760BDC01CB01B058BA
S1130800F40180839183A283B38310C080E090E0DD
S11308100E945A0C20E030E040E251E40E94760B42
S1130820D4016D937D938D939C931397B70180E0CE
S113083090E00E945A0C20E030E040E251E40E9433
S1130840760BF601608371838283938380E009C011
S11308508FEF07C08FEF05C08FEF03C08FEF01C08C
S11308608FEF0F900F900F900F900F90DF91CF911B
S11308701F910F91FF90EF90DF90CF90BF909F90CA
S11308808F907F906F9008950E94590308950F935D
S11308901F93CF93DF93CDB7DEB760970FB6F8946D
S11308A0DEBF0FBECDBF90E1E0E6F0E0DE011196C1
S11308B001900D929A95E1F7DB01EC9111969C91D0
S11308C01197F0E0F92B803179F4EE7FEE0FFF1FE2
S11308D0EE0FFF1FEE0FFF1F16969C91ACE0B0E0E9
S11308E0A91BB109EA0FFB1FFF233CF491E0DA01D5
S11308F09C93F195E195F10902C0DA011C928832CA
S113090081F4DB0114968C91982F9076903649F0FF
S113091086FF02C0EE7F05C085FF02C0EC7F01C0E8
S1130920E87FCF01929582958F7089279F708927E0
S1130930D9018C93EF70FF27EC0FFD1F8181F80123
S1130940808380E060960FB6F894DEBF0FBECDBF03
S1130950DF91CF911F910F9108950F931F93CF9320
S1130960DF93EC018B01B80188810E94F80A888327
S113097081508D3F30F4F8019081983211F090311C
S113098091F7DF91CF911F910F910895DF92EF922C
S1130990FF920F931F93CF93DF93CDB7DEB72997C1
S11309A00FB6F894DEBF0FBECDBF8FEF89870F2E31
S11309B0FEEBEF2EF0E0FF2EF02DD12C8E01075F21
S11309C01F4FBE016F5F7F4FC8010E94AD04998520
S11309D09E5F923090F0FE013196D70191919D93E4
S11309E0E017F107D9F7D3948985882331F088E09B
S11309F0E80EF11C84E0D812E4CF8D2D29960FB6B1
S1130A00F894DEBF0FBECDBFDF91CF911F910F9140
S1130A10FF90EF90DF9008950F931F93CF93C82F0B
S1130A208B010E94B50A0E94AF0A882351F0B801D5
S1130A3084E40E94520BC13031F00E94B20A80E07B
S1130A4003C082E001C080E0CF911F910F9108950F
S1130A507F928F929F92AF92BF92CF92DF92EF924A
S1130A60FF920F931F93CF93DF93CDB7DEB72997F0
S1130A700FB6F894DEBF0FBECDBF782E6B015A01BE
S1130A80490160E070E08EEB0E94520B8E010F5F13
S1130A901F4F7E018AE0E80EF11C0E94F40AF8015F
S1130AA081938F01EE15FF05C1F769E070E0CE0177
S1130AB001960E943C03F82E81110AC0840195011D
S1130AC0A601BE016F5F7F4F872D0E94470404C0BB
S1130AD00F2EF3E0FF2EF02D8F2D29960FB6F894EC
S1130AE0DEBF0FBECDBFDF91CF911F910F91FF905D
S1130AF0EF90DF90CF90BF90AF909F908F907F90BA
S1130B00089511B848EE53E0282F249FC001259F73
S1130B10900D11249C01990F440B550B60E070EC6F
S1130B2088EA90E00E94D50DBA01A901405151090B
S1130B3061097109DB01CA011AF40196A11DB11DF5
S1130B40B595A7959795879580B9089584EA86BF4A
S1130B5006B607FEFDCF089584E986BF06B604FEF7
S1130B60FDCF089583B984E886BF06B607FEFDCF9E
S1130B70089520E4829FC0011124846886BF06B6CC
S1130B8007FEFDCF83B10895EF92FF920F931F9359
S1130B90CF93DF93182FD62FC42F79010E94A60577
S1130BA0812F0E94B2058D2F0E94B2058FEF8C0F0A
S1130BB0CC2369F0E701082F10E00F5F1F4F0E0DE3
S1130BC01F1D89910E94B205C017D107D1F70E9459
S1130BD0AC05DF91CF911F910F91FF90EF90089595
S1130BE0EF92FF920F931F93CF93DF93D82F162F7B
S1130BF0C42FE22EF32E0E94A6058D2F0E94B2056B
S1130C00812F0E94B2050E94A60581E08D0F0E94EB
S1130C10B205DFEFDC0FCC2391F00E2D1F2DFF2446
S1130C20F394E12CCF2DD11101C0CE2D8C2F0E9435
S1130C30B905F80181938F01D150C111F3CF0E94FE
S1130C40AC05DF91CF911F910F91FF90EF90089524
S1130C50C19A80FF02C0C49A01C0C49881FF02C037
S1130C60C59A01C0C59882FF02C0C69A01C0C69841
S1130C7083FF02C0C79A01C0C79884E08A95F1F740
S1130C80C19884E08A95F1F70895CF93C82F82958F
S1130C908F700E9428068C2F0E942806CF910895F9
S1130CA0C0980E94450684E191E00197F1F70000A5
S1130CB00895C09A0E94450684E191E00197F1F7F6
S1130CC000000895BC9ABD9ABE9ABF9AB99AB89A80
S1130CD0A79A8FEF95E30197F1F700C0000083E036
S1130CE00E9428068CEC9AE00197F1F700C00000FE
S1130CF083E00E9428068CEC9AE00197F1F700C08B
S1130D00000083E00E9428068CEC9AE00197F1F73A
S1130D1000C0000082E00E9428068CEC9AE0019753
S1130D20F1F700C0000088E20E9450068CEC9AE0C3
S1130D300197F1F700C0000081E00E9450068CEC9E
S1130D409AE00197F1F700C0000086E00E94500687
S1130D508CEC9AE00197F1F700C000008CE00E944F
S1130D6050068CEC9AE00197F1F700C0000008955A
S1130D7081E00E945006089582E00E94500689E9AD
S1130D8095E10197F1F700C00895613011F090E802
S1130D9001C090EC892B0E94500608950F931F9375
S1130DA0CF93DF93FC018081882369F0EF012196C2
S1130DB08F0107511C4F0E9459068991882319F00D
S1130DC0C017D107C1F7DF91CF911F910F910895FB
S1130DD0CF93DF93EC012196FC018491882339F0B1
S1130DE00E945906FE01849121968111F9CFDF9169
S1130DF0CF910895CF93DF93CDB7DEB72A970FB67F
S1130E00F894DEBF0FBECDBF4AE0BE016F5F7F4FD7
S1130E100E94310ECE0101960E94CE062A960FB68C
S1130E20F894DEBF0FBECDBFDF91CF9108951F921E
S1130E300F920FB60F9211248F939F938091DE002F
S1130E409091DF0001969093DF008093DE0084365A
S1130E50910590F081E080936E018091E4008F5FB2
S1130E608093E4008091E4008C3310F01092E4004D
S1130E701092DF001092DE009F918F910F900FBEB1
S1130E800F901F90189586B1876886B980E487B95A
S1130E90A098A198A298A398A498A598A698A79872
S1130EA00895369A3699FECF08951F93CF93DF9312
S1130EB0EC01188219821A821B821AE00E945107DF
S1130EC024B135B188819981AA81BB81BC01CD014E
S1130ED0620F731F811D911D688379838A839B83AD
S1130EE0115061F72AE030E040E050E00E94B30D79
S1130EF0288339834A835B83DF91CF911F910895BF
S1130F0080E487B98FEF9BE60197F1F700C00000FA
S1130F1080E791E00E94550781E487B98FEF9BE653
S1130F200197F1F700C0000089EB91E00E9455079A
S1130F300895AF92BF92CF92DF92EF92FF920F93F8
S1130F401F9325EE30E042E060E286E40E945F00F9
S1130F50E5EEF0E0308120E0932F990F990BA1800A
S1130F60492F592F692F792F892FB12CC12CD12CBE
S1130F70E12CF12C00E010E00E94070E2093840085
S1130F8030938500409386005093870060938800D7
S1130F907093890080938A0090938B000E94970C31
S1130FA02AE939E949E95FE30E94760B0E94ED0BD7
S1130FB020937C0030937D0040937E0050937F000B
S1130FC060938000709381008093820090938300EB
S1130FD01F910F91FF90EF90DF90CF90BF90AF9053
S1130FE008950E9491016093E0007093E100809362
S1130FF0E2009093E3000E9405026093B5017093B0
S1131000B6018093B7019093B801089560E080E041
S11310100E94C50684E590E00E94E80661E080E055
S11310200E94C50610926F0180E790E00E94CE06F0
S11310302FEF8FEB96E0215080409040E1F700C005
S1131040000080916F018F5F80936F01803160F3A6
S11310502FEF8FED90E1215080409040E1F700C0E8
S113106000000E94B8060E94BC0608958091740195
S11310704AE065E771E090E00E94310E65E771E0B7
S113108088E691E00E941F0EE8E6F1E0019000205E
S1131090E9F731978CE290E0918380838091BD01E0
S11310A04AE065E771E090E00E94310E65E771E087
S11310B088E691E00E941F0E08952DEB31E044E78D
S11310C051E06FE671E08091E7000E9428058111EC
S11310D014C080916F01882339F08DE290E09093E1
S11310E069018093680106C080E290E090936901F1
S11310F0809368010E943608089560E081E00E94B0
S1131100C50682E790E00E94CE0608950E94C604B8
S11311108093E70060E070E081E00E940C052FEF0F
S11311208FE499E1215080409040E1F700C0000035
S11311300E945D0808950E94B8060E94BC0688E6D5
S113114091E00E94CE0688E790E00E94CE0620E05F
S113115030E040E251E460918C0070918D00809108
S11311608E0090918F000E94360D0E94240CCB01BA
S11311700E94FA0688E790E00E94CE0620E030E064
S113118040E251E46091900070919100809192004E
S1131190909193000E94360D0E94240CCB010E9472
S11311A0FA0688E790E00E94CE0661E080E00E94A3
S11311B0C50680917001909171010E94FA0688E73A
S11311C090E00E94CE068091B9019091BA010E94EC
S11311D0FA0688E790E00E94CE0680917C00909108
S11311E07D000E94FA0688E790E00E94CE060895EA
S11311F09091E4008BEA989F812D11248695282FE5
S1131200220F820F981306C06CE870E080E990E02A
S11312100E9444049091E4008BEA989F812D11244C
S11312208695282F220F820F981B913029F460E0B5
S113123070E081E00E940C059091E4008BEA989F95
S1131240812D11248695282F220F820F981B92300E
S113125011F40E945D0810926E01089583B78860AE
S113126083BF83B7856083BF8CE68CBF89B78260F8
S113127089BF0895EF92FF920F931F93CF93DF934B
S113128068E671E088EE90E00E942A0EC8EED0E095
S1131290FE0101900020E9F7319700E210E011838C
S11312A0008320E030E040E251E4609190007091CE
S11312B0910080919200909193000E94360D0E94BB
S11312C0240CDC01CB014AE065E771E00E94310E99
S11312D065E771E0CE010E941F0EFE01019000201F
S11312E0E9F731971183008320E030E040E251E4D4
S11312F060918C0070918D0080918E0090918F0090
S11313000E94360D0E94240CDC01CB014AE065E703
S113131071E00E94310E65E771E0CE010E941F0E5C
S1131320FE0101900020E9F73197118300834AE020
S113133065E771E080917001909171010E94310E16
S113134065E771E0CE010E941F0EFE0101900020AE
S1131350E9F73197118300834AE065E771E08091F2
S1131360B9019091BA010E94310E65E771E0CE0196
S11313700E941F0EFE0101900020E9F731971183AE
S113138000834AE065E771E080917C0090917D00E4
S11313900E94310E65E771E0CE010E941F0EFE012E
S11313A001900020E9F73197118300830F2EF5EEA9
S11313B0EF2EF0E0FF2EF02DF70180814AE065E783
S11313C071E090E00E94310E65E771E0CE010E9469
S11313D01F0EFE0101900020E9F731978CE290E0A6
S11313E091838083F70181814AE065E771E090E0B1
S11313F00E94310E65E771E0CE010E941F0EFE01CE
S113140001900020E9F73197118300834AE065E7F2
S113141071E08091E0009091E1000E94310E65E757
S113142071E0CE010E941F0EFE0101900020E9F739
S11314303197118300838091B5019091B601A091F9
S1131440B701B091B801892F9A2FAB2FBB27A7FD05
S1131450BA954AE065E771E00E94310E65E771E0F4
S1131460CE010E941F0EFE0101900020E9F7319782
S113147011830083FE0101900020E9F73197118365
S113148000838091B5014AE065E771E090E00E9435
S1131490310E65E771E0CE010E941F0E0990002015
S11314A0E9F72197198308836AE770E088EE90E0F2
S11314B00E941F0EDF91CF911F910F91FF90EF902B
S11314C0089510BC87E489B9539A8EE880BD0895C5
S11314D05D9BFECF8CB90895CF93DF93EC01888197
S11314E0882331F021960E94680A89918111FBCFEB
S11314F0DF91CF910895BB9AC3980E9443070E943D
S113150086080E9462060E942E090E94610A84E6EF
S11315100E9481050E9451000E9497002FEF8FEBDB
S113152091E2215080409040E1F700C0000078949F
S11315300E94060880916E018823E1F30E949907B6
S11315400E94F1070E94F8080E949B080E948007ED
S11315500E943A0988EE90E00E946C0AEBCF80B3B7
S113156088700895939A8B9A089593988B9A8FE232
S113157095E00197F1F79FB7F8948B98E3EFEA951C
S1131580F1F7000080B39FBFE8E7F4E03197F1F78B
S113159000C0839B02C08870089581E008959FB7BE
S11315A0F8948B9A24E02A95F1F781118B9827E31C
S11315B02A95F1F70000839B80E026EA2A95F1F74B
S11315C08B989FBF0895CF93DF93C82FD8E08C2FBB
S11315D081700E94CF0AC6958111C068D150B9F7B5
S11315E08C2FDF91CF9108958FEF0E94E30A089525
S11315F0DF92EF92FF920F931F93CF93DF93D82E36
S11316008B010E94B50A81112BC080EF0E94E30A6E
S1131610E12CC0E40F2EF8EFFF2EF02DFC0E81E03C
S11316200E94CF0AD82F81E00E94CF0A882319F0A4
S1131630DD23D1F017C0D11124C0CD15E8F0F80195
S1131640808180FF11C0DC121AC00EC0C150CF11BE
S1131650E6CF0F5F1F4FCF2DF110DCCF8E2D1AC0B8
S11316608FEF18C08EEF16C080E00E94CF0AF801F9
S1131670908196959083EACFEC2ED1E002C0EC2EB7
S1131680D1E08D2F0E94CF0AF80190819695906841
S11316909083DCCFDF91CF911F910F91FF90EF905A
S11316A0DF900895FF920F931F93CF93DF93F82E4B
S11316B0EB010E94B50A209769F085E50E94E30AD0
S11316C08E01085F1F4F89910E94E30AC017D1075A
S11316D0D1F703C08CEC0E94E30A8F2D0E94E30A29
S11316E0DF91CF911F910F91FF9008950E948A0B73
S11316F00C94FC0C0E94F50C58F00E94EE0C40F087
S113170029F45F3F29F00C94D50C51110C94300D41
S11317100C94DB0C0E940D0D68F39923B1F355234F
S113172091F3951B550BBB27AA27621773078407F0
S113173038F09F5F5F4F220F331F441FAA1FA9F386
S113174035D00E2E3AF0E0E832D091505040E69574
S1131750001CCAF72BD0FE2F29D0660F771F881FD5
S1131760BB1F261737074807AB07B0E809F0BB0BC8
S1131770802DBF01FF2793585F4F3AF09E3F5105DC
S113178078F00C94D50C0C94300D5F3FE4F3983E44
S1131790D4F3869577956795B795F7959F5FC9F7C5
S11317A0880F911D9695879597F90895E1E0660F46
S11317B0771F881FBB1F621773078407BA0720F0BF
S11317C0621B730B840BBA0BEE1F88F7E095089528
S11317D0BEE304D008F490E80895BFE3222733273A
S11317E0A9010E94150D60F19F5748F1B91740F106
S11317F0BFE3B91B9927B8503AF4660F771F881FC7
S1131800991FB395D2F316C0B8504AF0232F342F42
S1131810452F562F672F782F8827B850BAF7B85F0F
S113182049F0869577956795579547953795279508
S1131830BA95B9F716F40E94DE0C8894089588943A
S113184060E070E0CB0108950E942B0C6894B11104
S11318500C94300D08950E94150D88F09F5798F050
S1131860B92F9927B751B0F0E1F0660F771F881FA1
S1131870991F1AF0BA95C9F714C0B13091F00E94BB
S11318802F0DB1E008950C942F0D672F782F882722
S1131890B85F39F0B93FCCF3869577956795B395E2
S11318A0D9F73EF490958095709561957F4F8F4F51
S11318B09F4F0895E89409C097FB3EF49095809556
S11318C0709561957F4F8F4F9F4F9923A9F0F92F02
S11318D096E9BB279395F695879577956795B79580
S11318E0F111F8CFFAF4BB0F11F460FF1BC06F5F66
S11318F07F4F8F4F9F4F16C0882311F096E911C078
S1131900772321F09EE8872F762F05C0662371F098
S113191096E8862F70E060E02AF09A95660F771FAC
S1131920881FDAF7880F9695879597F90895E894B4
S1131930F92F96EBFF2381F0121613061406440BBD
S11319409395F69587957795679557954040FF232E
S1131950B9F71BC099270895882351F49850D2F7FA
S1131960872B762F652F542F432F322F20E0B1F38E
S1131970121613061406440B88233AF09A95440F62
S1131980551F661F771F881FCAF755234AF4440F53
S1131990551F11F460FF04C06F5F7F4F8F4F9F4F3F
S11319A0880F9695879597F9089597F99F6780E82A
S11319B070E060E008959FEF80EC08959095809525
S11319C07095609550954095309521953F4F4F4FB8
S11319D05F4F6F4F7F4F8F4F9F4F089500240A949E
S11319E01616170618060906089500240A941216F6
S11319F01306140605060895092E0394000C11F429
S1131A00882352F0BB0F40F4BF2B11F460FF04C0D5
S1131A106F5F7F4F8F4F9F4F089557FD9058440F2E
S1131A20551F59F05F3F71F04795880F97FB991F39
S1131A3061F09F3F79F087950895121613061406F6
S1131A40551FF2CF4695F1DF08C016161706180683
S1131A50991FF1CF86957105610508940895E8945E
S1131A60BB2766277727CB0197F908950E94490D74
S1131A700C94FC0C0E94EE0C38F00E94F50C20F043
S1131A80952311F00C94D50C0C94DB0C11240C94BC
S1131A90300D0E940D0D70F3959FC1F3950F50E02A
S1131AA0551F629FF001729FBB27F00DB11D639F0C
S1131AB0AA27F00DB11DAA1F649F6627B00DA11DB2
S1131AC0661F829F2227B00DA11D621F739FB00D58
S1131AD0A11D621F839FA00D611D221F749F3327C8
S1131AE0A00D611D231F849F600D211D822F762F61
S1131AF06A2F11249F5750409AF0F1F088234AF03E
S1131B00EE0FFF1FBB1F661F771F881F91505040A9
S1131B10A9F79E3F510580F00C94D50C0C94300D20
S1131B205F3FE4F3983ED4F3869577956795B79530
S1131B30F795E7959F5FC1F7FE2B880F911D96954A
S1131B40879597F90895DB018F939F930E94F40D75
S1131B50BF91AF91A29F800D911DA39F900DB29F45
S1131B60900D11240895A1E21A2EAA1BBB1BFD019E
S1131B700DC0AA1FBB1FEE1FFF1FA217B307E40768
S1131B80F50720F0A21BB30BE40BF50B661F771FC0
S1131B90881F991F1A9469F76095709580959095A0
S1131BA09B01AC01BD01CF010895052E97FB1EF4E6
S1131BB000940E94EC0D57FD07D00E94B30D07FC62
S1131BC003D04EF40C94EC0D50954095309521952E
S1131BD03F4F4F4F5F4F0895909580957095619555
S1131BE07F4F8F4F9F4F08950E94100EA59F900D19
S1131BF0B49F900DA49F800D911D11240895B7FFEB
S1131C000C94F40D0E94F40D821B930B08952A0D7D
S1131C103B1D4C1D5D1D6E1D7F1D801F911F089572
S1131C20A29FB001B39FC001A39F700D811D112419
S1131C30911DB29F700D811D1124911D0895FB010A
S1131C40DC010D900020E9F7119701900D9200201E
S1131C50E1F70895FB01DC0101900D920020E1F70A
S1131C600895BB274A3031F4992322F4BDE29095BC
S1131C7081959F4F0C943D0EBB27FB015527AA2746
S1131C80880F991FAA1FA41710F0A41B8395505105
S1131C90B9F7A05DAA3308F0A95DA193009779F77D
S1131CA0B111B1931192CB010C94560EDC01FC01DD
S1131CB0672F71917723E1F7329704C07C916D937C
S1131CC070836291AE17BF07C8F30895F894FFCFED
S1131CD000010102020304040506060707080909B6
S10F1CE02B006572726F720020000D0072
S9030000FC
